S0220000747261666669635F6C696768745F636F64655F416D72417469612E73726563B4
S11300000C942A000C942E010C943C000C943C009B
S11300100C943C000C943C000C943C000C943C006C
S11300200C943C000C943C000C943C000C943C005C
S11300300C943C000C943C000C943C000C943C004C
S11300400C943C000C943C000C943C000C943C003C
S11300500C943C0011241FBECFE5D8E0DEBFCDBF19
S113006020E0A0E6B0E001C01D92A536B207E1F79A
S11300700E9429010C941D030C94000062E084E4A6
S11300800E940A0160E081E40E94110161E081E4C0
S11300900E94110162E081E40E94110160E082E4A7
S11300A00E94110161E082E40E94110162E082E495
S11300B00E941101789485B7836085BF8BB78064F3
S11300C08BBF0E94DA020895CF93DF93C0E0D0E0A3
S11300D00DC061E081E40E9418010E94FD0261E00C
S11300E081E40E941F010E94FD022196C530D105C2
S11300F084F3DF91CF91089581E090E090936300C1
S11301008093620060E081E40E9418010E94DD0295
S113011060E081E40E941F010E94640062E081E4C7
S11301200E9418010E94DD0262E081E40E941F0126
S11301300E9464000895CF93DF93C0E0D0E015C01F
S113014061E082E40E94180161E081E40E941801E8
S11301500E94FD0261E082E40E941F0161E081E4EB
S11301600E941F010E94FD022196C530D10544F36F
S1130170DF91CF910895109263001092620044E6DB
S113018050E061E482E00E942601809164008130A5
S113019091F460E082E40E94180162E082E40E942B
S11301A01F0162E081E40E9418010E94DD0262E006
S11301B081E40E941F018091640081111CC062E0EF
S11301C082E40E9418010E949B0062E082E40E9483
S11301D01F0160E081E40E941F0160E082E40E944C
S11301E0180162E081E40E9418010E94DD0262E0CD
S11301F081E40E941F010E949B0060E082E40E944F
S11302001F0162E082E40E94180160E081E40E9420
S113021018010895982F862F40E0692F0E945C01F1
S11302200895982F862F41E0692F0E945C0108955C
S1130230982F862F41E0692F0E94E7010895982F97
S1130240862F40E0692F0E94E70108950E94720200
S113025008950E943E000E947C00FDCF1F920F92E1
S11302600FB60F9211242F933F934F935F936F9385
S11302707F938F939F93AF93BF93EF93FF9380915B
S1130280620090916300019731F40E94BB001BBA95
S113029018BA0C940000FF91EF91BF91AF919F9118
S11302A08F917F916F915F914F913F912F910F901B
S11302B00FBE0F901F901895623459F118F46134F1
S11302C041F00895633409F444C0643409F460C00F
S11302D0089541110EC04AB321E030E0B90102C0D3
S11302E0660F771F8A95E2F7CB01809584238ABB3A
S11302F00895413009F06AC04AB321E030E0B90101
S113030002C0660F771F8A95E2F7CB01842B8ABB64
S1130310089541110EC047B321E030E0B90102C095
S1130320660F771F8A95E2F7CB018095842387BBFC
S11303300895413009F04AC047B321E030E0B901E3
S113034002C0660F771F8A95E2F7CB01842B87BB27
S1130350089541110EC044B321E030E0B90102C058
S1130360660F771F8A95E2F7CB018095842384BBBF
S11303700895413059F544B321E030E0B90102C099
S1130380660F771F8A95E2F7CB01842B84BB08950F
S113039041110EC041B321E030E0B90102C0660F43
S11303A0771F8A95E2F7CB018095842381BB08955A
S11303B0413061F441B321E030E0B90102C0660F7D
S11303C0771F8A95E2F7CB01842B81BB08956234B1
S11303D059F118F4613441F00895633409F444C0C8
S11303E0643409F460C0089541110EC04BB321E098
S11303F030E0B90102C0660F771F8A95E2F7CB019E
S1130400809584238BBB0895413009F06AC04BB3B7
S113041021E030E0B90102C0660F771F8A95E2F748
S1130420CB01842B8BBB089541110EC048B321E04E
S113043030E0B90102C0660F771F8A95E2F7CB015D
S11304408095842388BB0895413009F04AC048B39D
S113045021E030E0B90102C0660F771F8A95E2F708
S1130460CB01842B88BB089541110EC045B321E014
S113047030E0B90102C0660F771F8A95E2F7CB011D
S11304808095842385BB0895413059F545B321E017
S113049030E0B90102C0660F771F8A95E2F7CB01FD
S11304A0842B85BB089541110EC042B321E030E096
S11304B0B90102C0660F771F8A95E2F7CB018095D8
S11304C0842382BB0895413061F442B321E030E0DB
S11304D0B90102C0660F771F8A95E2F7CB01842B1E
S11304E082BB0895623409F118F4613439F0089537
S11304F0633491F1643409F446C0089599B321E05A
S113050030E0B901082E02C0660F771F0A94E2F7A3
S1130510292F30E026233723B90102C0759567954A
S11305208A95E2F7FA016083089596B321E030E0FA
S1130530B901082E02C0660F771F0A94E2F7292F2B
S113054030E026233723B90102C0759567958A9553
S1130550E2F7FA016083089593B321E030E0B90132
S1130560082E02C0660F771F0A94E2F7292F30E0A5
S113057026233723B90102C0759567958A95E2F75A
S1130580FA016083089590B321E030E0B901082EA8
S113059002C0660F771F0A94E2F7292F30E0262362
S11305A03723B90102C0759567958A95E2F7FA0178
S11305B06083089513BE12BE089583B7816083BF1C
S11305C00FC008B600FEFDCF88B7816088BF809158
S11305D060009091610001969093610080936000A7
S11305E080916000909161008C349C4450F310928F
S11305F061001092600013BE089583B7816083BFC9
S11306000FC008B600FEFDCF88B7816088BF809117
S11306106000909161000196909361008093600066
S11306208091600090916100823A974050F310925B
S111063061001092600013BE0895F894FFCF8D
S9030000FC
